{
  "contractName": "Fundraiser",
  "abi": [
    {
      "inputs": [
        {
          "internalType": "address",
          "name": "_custodian",
          "type": "address"
        },
        {
          "internalType": "address payable",
          "name": "_beneficiary",
          "type": "address"
        },
        {
          "internalType": "string",
          "name": "_name",
          "type": "string"
        },
        {
          "internalType": "string",
          "name": "_imageUrl",
          "type": "string"
        },
        {
          "internalType": "string",
          "name": "_url",
          "type": "string"
        },
        {
          "internalType": "string",
          "name": "_desc",
          "type": "string"
        }
      ],
      "stateMutability": "nonpayable",
      "type": "constructor"
    },
    {
      "anonymous": false,
      "inputs": [
        {
          "indexed": true,
          "internalType": "address",
          "name": "donor",
          "type": "address"
        },
        {
          "indexed": false,
          "internalType": "uint256",
          "name": "value",
          "type": "uint256"
        }
      ],
      "name": "DonationReceived",
      "type": "event"
    },
    {
      "anonymous": false,
      "inputs": [
        {
          "indexed": true,
          "internalType": "address",
          "name": "previousOwner",
          "type": "address"
        },
        {
          "indexed": true,
          "internalType": "address",
          "name": "newOwner",
          "type": "address"
        }
      ],
      "name": "OwnershipTransferred",
      "type": "event"
    },
    {
      "anonymous": false,
      "inputs": [
        {
          "indexed": false,
          "internalType": "uint256",
          "name": "amount",
          "type": "uint256"
        }
      ],
      "name": "Withdraw",
      "type": "event"
    },
    {
      "inputs": [],
      "name": "beneficiary",
      "outputs": [
        {
          "internalType": "address payable",
          "name": "",
          "type": "address"
        }
      ],
      "stateMutability": "view",
      "type": "function"
    },
    {
      "inputs": [],
      "name": "description",
      "outputs": [
        {
          "internalType": "string",
          "name": "",
          "type": "string"
        }
      ],
      "stateMutability": "view",
      "type": "function"
    },
    {
      "inputs": [],
      "name": "donationsCount",
      "outputs": [
        {
          "internalType": "uint256",
          "name": "",
          "type": "uint256"
        }
      ],
      "stateMutability": "view",
      "type": "function"
    },
    {
      "inputs": [],
      "name": "imageUrl",
      "outputs": [
        {
          "internalType": "string",
          "name": "",
          "type": "string"
        }
      ],
      "stateMutability": "view",
      "type": "function"
    },
    {
      "inputs": [],
      "name": "name",
      "outputs": [
        {
          "internalType": "string",
          "name": "",
          "type": "string"
        }
      ],
      "stateMutability": "view",
      "type": "function"
    },
    {
      "inputs": [],
      "name": "owner",
      "outputs": [
        {
          "internalType": "address",
          "name": "",
          "type": "address"
        }
      ],
      "stateMutability": "view",
      "type": "function"
    },
    {
      "inputs": [],
      "name": "renounceOwnership",
      "outputs": [],
      "stateMutability": "nonpayable",
      "type": "function"
    },
    {
      "inputs": [],
      "name": "stopped",
      "outputs": [
        {
          "internalType": "bool",
          "name": "",
          "type": "bool"
        }
      ],
      "stateMutability": "view",
      "type": "function"
    },
    {
      "inputs": [],
      "name": "totalDonations",
      "outputs": [
        {
          "internalType": "uint256",
          "name": "",
          "type": "uint256"
        }
      ],
      "stateMutability": "view",
      "type": "function"
    },
    {
      "inputs": [
        {
          "internalType": "address",
          "name": "newOwner",
          "type": "address"
        }
      ],
      "name": "transferOwnership",
      "outputs": [],
      "stateMutability": "nonpayable",
      "type": "function"
    },
    {
      "inputs": [],
      "name": "url",
      "outputs": [
        {
          "internalType": "string",
          "name": "",
          "type": "string"
        }
      ],
      "stateMutability": "view",
      "type": "function"
    },
    {
      "stateMutability": "payable",
      "type": "receive"
    },
    {
      "inputs": [],
      "name": "stopContract",
      "outputs": [],
      "stateMutability": "nonpayable",
      "type": "function"
    },
    {
      "inputs": [],
      "name": "resumeContract",
      "outputs": [],
      "stateMutability": "nonpayable",
      "type": "function"
    },
    {
      "inputs": [
        {
          "internalType": "uint256",
          "name": "_value",
          "type": "uint256"
        }
      ],
      "name": "donate",
      "outputs": [],
      "stateMutability": "payable",
      "type": "function"
    },
    {
      "inputs": [
        {
          "internalType": "address payable",
          "name": "_beneficiary",
          "type": "address"
        }
      ],
      "name": "setBeneficiary",
      "outputs": [],
      "stateMutability": "nonpayable",
      "type": "function"
    },
    {
      "inputs": [],
      "name": "withdraw",
      "outputs": [],
      "stateMutability": "payable",
      "type": "function"
    },
    {
      "inputs": [],
      "name": "myDonationsCount",
      "outputs": [
        {
          "internalType": "uint256",
          "name": "",
          "type": "uint256"
        }
      ],
      "stateMutability": "view",
      "type": "function"
    },
    {
      "inputs": [],
      "name": "myDonations",
      "outputs": [
        {
          "internalType": "uint256[]",
          "name": "values",
          "type": "uint256[]"
        },
        {
          "internalType": "uint256[]",
          "name": "dates",
          "type": "uint256[]"
        }
      ],
      "stateMutability": "view",
      "type": "function"
    }
  ],
  "bytecode": "0x60806040523480156200001157600080fd5b506040516200141038038062001410833981810160405260c08110156200003757600080fd5b815160208301516040808501805191519395929483019291846401000000008211156200006357600080fd5b9083019060208201858111156200007957600080fd5b82516401000000008111828201881017156200009457600080fd5b82525081516020918201929091019080838360005b83811015620000c3578181015183820152602001620000a9565b50505050905090810190601f168015620000f15780820380516001836020036101000a031916815260200191505b50604052602001805160405193929190846401000000008211156200011557600080fd5b9083019060208201858111156200012b57600080fd5b82516401000000008111828201881017156200014657600080fd5b82525081516020918201929091019080838360005b83811015620001755781810151838201526020016200015b565b50505050905090810190601f168015620001a35780820380516001836020036101000a031916815260200191505b5060405260200180516040519392919084640100000000821115620001c757600080fd5b908301906020820185811115620001dd57600080fd5b8251640100000000811182820188101715620001f857600080fd5b82525081516020918201929091019080838360005b83811015620002275781810151838201526020016200020d565b50505050905090810190601f168015620002555780820380516001836020036101000a031916815260200191505b50604052602001805160405193929190846401000000008211156200027957600080fd5b9083019060208201858111156200028f57600080fd5b8251640100000000811182820188101715620002aa57600080fd5b82525081516020918201929091019080838360005b83811015620002d9578181015183820152602001620002bf565b50505050905090810190601f168015620003075780820380516001836020036101000a031916815260200191505b50604052505050600062000320620003f060201b60201c565b600080546001600160a01b0319166001600160a01b038316908117825560405192935091600080516020620013f0833981519152908290a3506001805562000371866001600160e01b03620003f516565b600480546001600160a01b0319166001600160a01b0387161790558351620003a1906003906020870190620004fc565b508251620003b7906005906020860190620004fc565b508151620003cd906006906020850190620004fc565b508051620003e3906007906020840190620004fc565b505050505050506200059e565b335b90565b620004086001600160e01b03620003f016565b6000546001600160a01b039081169116146200046b576040805162461bcd60e51b815260206004820181905260248201527f4f776e61626c653a2063616c6c6572206973206e6f7420746865206f776e6572604482015290519081900360640190fd5b6001600160a01b038116620004b25760405162461bcd60e51b8152600401808060200182810382526026815260200180620013ca6026913960400191505060405180910390fd5b600080546040516001600160a01b0380851693921691600080516020620013f083398151915291a3600080546001600160a01b0319166001600160a01b0392909216919091179055565b828054600181600116156101000203166002900490600052602060002090601f016020900481019282601f106200053f57805160ff19168380011785556200056f565b828001600101855582156200056f579182015b828111156200056f57825182559160200191906001019062000552565b506200057d92915062000581565b5090565b620003f291905b808211156200057d576000815560010162000588565b610e1c80620005ae6000396000f3fe60806040526004361061010d5760003560e01c8063715018a611610095578063aba8315011610064578063aba831501461039e578063c4bc5da5146103b3578063de2ed893146103c8578063f14faf6f146103dd578063f2fde38b146103fa57610125565b8063715018a6146103365780637284e4161461034b57806375f12b21146103605780638da5cb5b1461038957610125565b80631c31f710116100dc5780631c31f710146102a05780631f522595146102d357806338af3eed146102e85780633ccfd60b146103195780635600f04f1461032157610125565b80630180b97c1461012a57806306fdde031461015157806312253a6c146101db5780631a57f7b4146101f257610125565b36610125576008805434019055600980546001019055005b600080fd5b34801561013657600080fd5b5061013f61042d565b60408051918252519081900360200190f35b34801561015d57600080fd5b50610166610440565b6040805160208082528351818301528351919283929083019185019080838360005b838110156101a0578181015183820152602001610188565b50505050905090810190601f1680156101cd5780820380516001836020036101000a031916815260200191505b509250505060405180910390f35b3480156101e757600080fd5b506101f06104ce565b005b3480156101fe57600080fd5b50610207610535565b604051808060200180602001838103835285818151815260200191508051906020019060200280838360005b8381101561024b578181015183820152602001610233565b50505050905001838103825284818151815260200191508051906020019060200280838360005b8381101561028a578181015183820152602001610272565b5050505090500194505050505060405180910390f35b3480156102ac57600080fd5b506101f0600480360360208110156102c357600080fd5b50356001600160a01b031661064a565b3480156102df57600080fd5b5061013f6106c4565b3480156102f457600080fd5b506102fd6106ca565b604080516001600160a01b039092168252519081900360200190f35b6101f06106d9565b34801561032d57600080fd5b50610166610849565b34801561034257600080fd5b506101f06108a4565b34801561035757600080fd5b50610166610946565b34801561036c57600080fd5b506103756109a1565b604080519115158252519081900360200190f35b34801561039557600080fd5b506102fd6109aa565b3480156103aa57600080fd5b506101666109b9565b3480156103bf57600080fd5b506101f0610a14565b3480156103d457600080fd5b5061013f610a78565b6101f0600480360360208110156103f357600080fd5b5035610a7e565b34801561040657600080fd5b506101f06004803603602081101561041d57600080fd5b50356001600160a01b0316610be5565b336000908152600a602052604090205490565b6003805460408051602060026001851615610100026000190190941693909304601f810184900484028201840190925281815292918301828280156104c65780601f1061049b576101008083540402835291602001916104c6565b820191906000526020600020905b8154815290600101906020018083116104a957829003601f168201915b505050505081565b6104d6610cdd565b6000546001600160a01b03908116911614610526576040805162461bcd60e51b81526020600482018190526024820152600080516020610dc7833981519152604482015290519081900360640190fd5b6002805460ff19166001179055565b606080600061054261042d565b90508067ffffffffffffffff8111801561055b57600080fd5b50604051908082528060200260200182016040528015610585578160200160208202803683370190505b5092508067ffffffffffffffff8111801561059f57600080fd5b506040519080825280602002602001820160405280156105c9578160200160208202803683370190505b50915060005b8181101561064457336000908152600a602052604081208054839081106105f257fe5b90600052602060002090600202019050806000015485838151811061061357fe5b602002602001018181525050806001015484838151811061063057fe5b6020908102919091010152506001016105cf565b50509091565b610652610cdd565b6000546001600160a01b039081169116146106a2576040805162461bcd60e51b81526020600482018190526024820152600080516020610dc7833981519152604482015290519081900360640190fd5b600480546001600160a01b0319166001600160a01b0392909216919091179055565b60095481565b6004546001600160a01b031681565b6106e1610cdd565b6000546001600160a01b03908116911614610731576040805162461bcd60e51b81526020600482018190526024820152600080516020610dc7833981519152604482015290519081900360640190fd5b60026001541415610789576040805162461bcd60e51b815260206004820152601f60248201527f5265656e7472616e637947756172643a207265656e7472616e742063616c6c00604482015290519081900360640190fd5b60026001818155905460ff16151514156107d45760405162461bcd60e51b8152600401808060200182810382526044815260200180610d836044913960600191505060405180910390fd5b60045460405147916001600160a01b03169082156108fc029083906000818181858888f1935050505015801561080e573d6000803e3d6000fd5b506040805182815290517f5b6b431d4476a211bb7d41c20d1aab9ae2321deee0d20be3d9fc9b1093fa6e3d9181900360200190a15060018055565b6006805460408051602060026001851615610100026000190190941693909304601f810184900484028201840190925281815292918301828280156104c65780601f1061049b576101008083540402835291602001916104c6565b6108ac610cdd565b6000546001600160a01b039081169116146108fc576040805162461bcd60e51b81526020600482018190526024820152600080516020610dc7833981519152604482015290519081900360640190fd5b600080546040516001600160a01b03909116907f8be0079c531659141344cd1fd0a4f28419497f9722a3daafe3b4186f6b6457e0908390a3600080546001600160a01b0319169055565b6007805460408051602060026001851615610100026000190190941693909304601f810184900484028201840190925281815292918301828280156104c65780601f1061049b576101008083540402835291602001916104c6565b60025460ff1681565b6000546001600160a01b031690565b6005805460408051602060026001851615610100026000190190941693909304601f810184900484028201840190925281815292918301828280156104c65780601f1061049b576101008083540402835291602001916104c6565b610a1c610cdd565b6000546001600160a01b03908116911614610a6c576040805162461bcd60e51b81526020600482018190526024820152600080516020610dc7833981519152604482015290519081900360640190fd5b6002805460ff19169055565b60085481565b60026001541415610ad6576040805162461bcd60e51b815260206004820152601f60248201527f5265656e7472616e637947756172643a207265656e7472616e742063616c6c00604482015290519081900360640190fd5b60026001818155905460ff1615151415610b215760405162461bcd60e51b8152600401808060200182810382526044815260200180610d836044913960600191505060405180910390fd5b803410158015610b315750600081115b610b3a57600080fd5b610b42610d42565b50604080518082018252828152426020808301918252336000908152600a82529384208054600181810183559186529190942083516002909202019081559051920191909155600854610b9b908363ffffffff610ce116565b60085560098054600101905560408051838152905133917f264f630d9efa0d07053a31163641d9fcc0adafc9d9e76f1c37c2ce3a558d2c52919081900360200190a2505060018055565b610bed610cdd565b6000546001600160a01b03908116911614610c3d576040805162461bcd60e51b81526020600482018190526024820152600080516020610dc7833981519152604482015290519081900360640190fd5b6001600160a01b038116610c825760405162461bcd60e51b8152600401808060200182810382526026815260200180610d5d6026913960400191505060405180910390fd5b600080546040516001600160a01b03808516939216917f8be0079c531659141344cd1fd0a4f28419497f9722a3daafe3b4186f6b6457e091a3600080546001600160a01b0319166001600160a01b0392909216919091179055565b3390565b600082820183811015610d3b576040805162461bcd60e51b815260206004820152601b60248201527f536166654d6174683a206164646974696f6e206f766572666c6f770000000000604482015290519081900360640190fd5b9392505050565b60405180604001604052806000815260200160008152509056fe4f776e61626c653a206e6577206f776e657220697320746865207a65726f206164647265737343757272656e746c7920796f752063616e6e6f7420706572666f726d207468697320616374696f6e206265636175736520636f6e74726163742069732073746f707065644f776e61626c653a2063616c6c6572206973206e6f7420746865206f776e6572a26469706673582212203cab19df8b70a169195c162bb7afa8ea7fda75c1673488fb2e0b7475778838a364736f6c634300060500334f776e61626c653a206e6577206f776e657220697320746865207a65726f20616464726573738be0079c531659141344cd1fd0a4f28419497f9722a3daafe3b4186f6b6457e0",
  "immutableReferences": {},
  "source": "pragma solidity 0.6.5;\n\nimport \"@openzeppelin/contracts/math/SafeMath.sol\";\nimport \"@openzeppelin/contracts/access/Ownable.sol\";\nimport \"@openzeppelin/contracts/utils/ReentrancyGuard.sol\";\nimport \"@openzeppelin/contracts/utils/Pausable.sol\";\ncontract Fundraiser is Ownable, ReentrancyGuard{\n\n    using SafeMath for uint256;\n\n    bool public stopped;\n\n    string public name;\n    address payable public beneficiary;\n    string public imageUrl;\n    string public url;\n    string public description;\n\n    uint public totalDonations;\n    uint public donationsCount;\n\n    mapping(address => Donation[]) private _donations;\n\n    event DonationReceived(address indexed donor ,uint value);\n    event Withdraw(uint amount);\n\n    struct Donation{\n        uint value;\n        uint date;\n    }\n\n    modifier whenNotStopped(){\n        require(stopped != true, \"Currently you cannot perform this action because contract is stopped\");\n        _;\n    }\n\n    modifier whenStopped(){\n        require(stopped == true, \"Currently you cannot perform this action because contract is not stopped\");\n        _;\n    }\n\n    constructor(\n        address _custodian,\n        address payable _beneficiary, \n        string memory _name, \n        string memory _imageUrl, \n        string memory _url,\n        string memory _desc\n    ) \n        public \n    {\n        transferOwnership(_custodian);\n        beneficiary = _beneficiary;\n        name = _name;\n        imageUrl = _imageUrl;\n        url = _url;\n        description = _desc;\n    }\n\n    receive () external payable{\n        totalDonations += msg.value;\n        donationsCount++;\n    }\n\n    function stopContract() public onlyOwner(){\n        stopped = true;\n    }\n\n    function resumeContract() public onlyOwner(){\n        stopped = false;\n    }\n\n    function donate(uint _value) public payable nonReentrant() whenNotStopped(){\n        require(msg.value >= _value && _value > 0);\n        Donation memory donation = Donation({value: _value, date: now});\n        _donations[msg.sender].push(donation);\n        totalDonations = totalDonations.add(_value);\n        ++donationsCount;\n        emit DonationReceived(msg.sender, _value);\n    } \n\n    function setBeneficiary(address payable _beneficiary) public onlyOwner {\n        beneficiary = _beneficiary;\n    }\n\n    function withdraw() public payable onlyOwner() nonReentrant() whenNotStopped() {\n        uint balance = address(this).balance;\n        beneficiary.transfer(balance);\n        emit Withdraw(balance);\n    }\n\n    function myDonationsCount() public view returns(uint){\n        return _donations[msg.sender].length;\n    }\n\n    function myDonations() public view returns(uint[] memory values, uint[] memory dates){\n        uint count = myDonationsCount();\n        values = new uint[](count);\n        dates = new uint[](count);\n\n        for(uint i = 0; i < count; i++){\n            Donation storage donation = _donations[msg.sender][i];\n            values[i] = donation.value;\n            dates[i] = donation.date;\n        }\n        return(values, dates);\n    }\n\n}",
  "sourcePath": "/home/anthler/Desktop/SMART CONTRACTS/crypto-raiser/contracts/Fundraiser.sol",
  "compiler": {
    "name": "solc",
    "version": "0.6.5+commit.f956cc89.Emscripten.clang"
  },
  "schemaVersion": "3.2.0",
  "updatedAt": "2020-08-11T01:26:19.955Z",
  "devdoc": {
    "methods": {
      "owner()": {
        "details": "Returns the address of the current owner."
      },
      "renounceOwnership()": {
        "details": "Leaves the contract without owner. It will not be possible to call `onlyOwner` functions anymore. Can only be called by the current owner.     * NOTE: Renouncing ownership will leave the contract without an owner, thereby removing any functionality that is only available to the owner."
      },
      "transferOwnership(address)": {
        "details": "Transfers ownership of the contract to a new account (`newOwner`). Can only be called by the current owner."
      }
    }
  },
  "userdoc": {
    "methods": {}
  }
}