{
  "contractName": "FundraiserFactory",
  "abi": [
    {
      "anonymous": false,
      "inputs": [
        {
          "indexed": true,
          "internalType": "address",
          "name": "fundraiser",
          "type": "address"
        }
      ],
      "name": "FundraiserCreated",
      "type": "event"
    },
    {
      "constant": false,
      "inputs": [
        {
          "internalType": "address payable",
          "name": "_beneficiary",
          "type": "address"
        },
        {
          "internalType": "string",
          "name": "_name",
          "type": "string"
        },
        {
          "internalType": "string",
          "name": "_imageUrl",
          "type": "string"
        },
        {
          "internalType": "string",
          "name": "_url",
          "type": "string"
        },
        {
          "internalType": "string",
          "name": "_description",
          "type": "string"
        }
      ],
      "name": "createFundraiser",
      "outputs": [],
      "payable": false,
      "stateMutability": "nonpayable",
      "type": "function"
    },
    {
      "constant": true,
      "inputs": [
        {
          "internalType": "uint256",
          "name": "limit",
          "type": "uint256"
        },
        {
          "internalType": "uint256",
          "name": "offset",
          "type": "uint256"
        }
      ],
      "name": "fundraisers",
      "outputs": [
        {
          "internalType": "contract Fundraiser[]",
          "name": "coll",
          "type": "address[]"
        }
      ],
      "payable": false,
      "stateMutability": "view",
      "type": "function"
    },
    {
      "constant": true,
      "inputs": [],
      "name": "fundraisersCount",
      "outputs": [
        {
          "internalType": "uint256",
          "name": "",
          "type": "uint256"
        }
      ],
      "payable": false,
      "stateMutability": "view",
      "type": "function"
    }
  ],
  "bytecode": "0x608060405234801561001057600080fd5b50611a80806100206000396000f3fe60806040523480156200001157600080fd5b5060043610620000465760003560e01c806322c8579a146200004b578063704914f8146200029f5780639d3b43551462000317575b600080fd5b6200029d600480360360a08110156200006357600080fd5b6001600160a01b038235169190810190604081016020820135600160201b8111156200008e57600080fd5b820183602082011115620000a157600080fd5b803590602001918460018302840111600160201b83111715620000c357600080fd5b91908080601f0160208091040260200160405190810160405280939291908181526020018383808284376000920191909152509295949360208101935035915050600160201b8111156200011657600080fd5b8201836020820111156200012957600080fd5b803590602001918460018302840111600160201b831117156200014b57600080fd5b91908080601f0160208091040260200160405190810160405280939291908181526020018383808284376000920191909152509295949360208101935035915050600160201b8111156200019e57600080fd5b820183602082011115620001b157600080fd5b803590602001918460018302840111600160201b83111715620001d357600080fd5b91908080601f0160208091040260200160405190810160405280939291908181526020018383808284376000920191909152509295949360208101935035915050600160201b8111156200022657600080fd5b8201836020820111156200023957600080fd5b803590602001918460018302840111600160201b831117156200025b57600080fd5b91908080601f01602080910402602001604051908101604052809392919081815260200183838082843760009201919091525092955062000333945050505050565b005b620002c560048036036040811015620002b757600080fd5b5080359060200135620005c1565b60408051602080825283518183015283519192839290830191858101910280838360005b8381101562000303578181015183820152602001620002e9565b505050509050019250505060405180910390f35b62000321620006ef565b60408051918252519081900360200190f35b60003386868686866040516200034990620006f5565b80876001600160a01b03166001600160a01b03168152602001866001600160a01b03166001600160a01b0316815260200180602001806020018060200180602001858103855289818151815260200191508051906020019080838360005b83811015620003c1578181015183820152602001620003a7565b50505050905090810190601f168015620003ef5780820380516001836020036101000a031916815260200191505b5085810384528851815288516020918201918a019080838360005b83811015620004245781810151838201526020016200040a565b50505050905090810190601f168015620004525780820380516001836020036101000a031916815260200191505b50858103835287518152875160209182019189019080838360005b83811015620004875781810151838201526020016200046d565b50505050905090810190601f168015620004b55780820380516001836020036101000a031916815260200191505b50858103825286518152865160209182019188019080838360005b83811015620004ea578181015183820152602001620004d0565b50505050905090810190601f168015620005185780820380516001836020036101000a031916815260200191505b509a5050505050505050505050604051809103906000f08015801562000542573d6000803e3d6000fd5b50600080546001810182558180527f290decd9548b62a8d60345a988386fc84ba6bc95484008f6362f93160ef3e5630180546001600160a01b0319166001600160a01b038416908117909155604051929350917f2557643b2d3fb1068494cb23ac8d1b3b2a857564fe606f86020e33e2351e42dc9190a2505050505050565b6060620005cd620006ef565b82111562000619576040805162461bcd60e51b81526020600482015260146024820152736f6666736574206f7574206f6620626f756e647360601b604482015290519081900360640190fd5b60008262000626620006ef565b0390508381106200063857836200063a565b805b9050601481106200064d5760146200064f565b805b9050806040519080825280602002602001820160405280156200067c578160200160208202803883390190505b50915060005b81811015620006e7576000818501815481106200069b57fe5b9060005260206000200160009054906101000a90046001600160a01b0316838281518110620006c657fe5b6001600160a01b039092166020928302919091019091015260010162000682565b505092915050565b60005490565b61134880620007048339019056fe60806040523480156200001157600080fd5b506040516200134838038062001348833981810160405260c08110156200003757600080fd5b815160208301516040808501805191519395929483019291846401000000008211156200006357600080fd5b9083019060208201858111156200007957600080fd5b82516401000000008111828201881017156200009457600080fd5b82525081516020918201929091019080838360005b83811015620000c3578181015183820152602001620000a9565b50505050905090810190601f168015620000f15780820380516001836020036101000a031916815260200191505b50604052602001805160405193929190846401000000008211156200011557600080fd5b9083019060208201858111156200012b57600080fd5b82516401000000008111828201881017156200014657600080fd5b82525081516020918201929091019080838360005b83811015620001755781810151838201526020016200015b565b50505050905090810190601f168015620001a35780820380516001836020036101000a031916815260200191505b5060405260200180516040519392919084640100000000821115620001c757600080fd5b908301906020820185811115620001dd57600080fd5b8251640100000000811182820188101715620001f857600080fd5b82525081516020918201929091019080838360005b83811015620002275781810151838201526020016200020d565b50505050905090810190601f168015620002555780820380516001836020036101000a031916815260200191505b50604052602001805160405193929190846401000000008211156200027957600080fd5b9083019060208201858111156200028f57600080fd5b8251640100000000811182820188101715620002aa57600080fd5b82525081516020918201929091019080838360005b83811015620002d9578181015183820152602001620002bf565b50505050905090810190601f168015620003075780820380516001836020036101000a031916815260200191505b5060405250620003229150506001600160e01b03620003f016565b600080546001600160a01b0319166001600160a01b039283161780825560405192169160008051602062001328833981519152908290a36001805562000371866001600160e01b03620003f516565b600480546001600160a01b0319166001600160a01b0387161790558351620003a190600390602087019062000486565b508251620003b790600590602086019062000486565b508151620003cd90600690602085019062000486565b508051620003e390600790602084019062000486565b5050505050505062000528565b335b90565b6001600160a01b0381166200043c5760405162461bcd60e51b8152600401808060200182810382526026815260200180620013026026913960400191505060405180910390fd5b600080546040516001600160a01b03808516939216916000805160206200132883398151915291a3600080546001600160a01b0319166001600160a01b0392909216919091179055565b828054600181600116156101000203166002900490600052602060002090601f016020900481019282601f10620004c957805160ff1916838001178555620004f9565b82800160010185558215620004f9579182015b82811115620004f9578251825591602001919060010190620004dc565b50620005079291506200050b565b5090565b620003f291905b8082111562000507576000815560010162000512565b610dca80620005386000396000f3fe6080604052600436106101145760003560e01c8063715018a6116100a0578063aba8315011610064578063aba83150146103b0578063c4bc5da5146103c5578063de2ed893146103da578063f14faf6f146103ef578063f2fde38b1461040c57610114565b8063715018a6146103335780637284e4161461034857806375f12b211461035d5780638da5cb5b146103865780638f32d59b1461039b57610114565b80631c31f710116100e75780631c31f7101461029d5780631f522595146102d057806338af3eed146102e55780633ccfd60b146103165780635600f04f1461031e57610114565b80630180b97c1461012757806306fdde031461014e57806312253a6c146101d85780631a57f7b4146101ef575b6008805434019055600980546001019055005b34801561013357600080fd5b5061013c61043f565b60408051918252519081900360200190f35b34801561015a57600080fd5b50610163610452565b6040805160208082528351818301528351919283929083019185019080838360005b8381101561019d578181015183820152602001610185565b50505050905090810190601f1680156101ca5780820380516001836020036101000a031916815260200191505b509250505060405180910390f35b3480156101e457600080fd5b506101ed6104e0565b005b3480156101fb57600080fd5b50610204610536565b604051808060200180602001838103835285818151815260200191508051906020019060200280838360005b83811015610248578181015183820152602001610230565b50505050905001838103825284818151815260200191508051906020019060200280838360005b8381101561028757818101518382015260200161026f565b5050505090500194505050505060405180910390f35b3480156102a957600080fd5b506101ed600480360360208110156102c057600080fd5b50356001600160a01b031661061d565b3480156102dc57600080fd5b5061013c610686565b3480156102f157600080fd5b506102fa61068c565b604080516001600160a01b039092168252519081900360200190f35b6101ed61069b565b34801561032a57600080fd5b506101636107fc565b34801561033f57600080fd5b506101ed610857565b34801561035457600080fd5b506101636108e8565b34801561036957600080fd5b50610372610943565b604080519115158252519081900360200190f35b34801561039257600080fd5b506102fa61094c565b3480156103a757600080fd5b5061037261095b565b3480156103bc57600080fd5b5061016361097f565b3480156103d157600080fd5b506101ed6109da565b3480156103e657600080fd5b5061013c610a2d565b6101ed6004803603602081101561040557600080fd5b5035610a33565b34801561041857600080fd5b506101ed6004803603602081101561042f57600080fd5b50356001600160a01b0316610b9c565b336000908152600a602052604090205490565b6003805460408051602060026001851615610100026000190190941693909304601f810184900484028201840190925281815292918301828280156104d85780601f106104ad576101008083540402835291602001916104d8565b820191906000526020600020905b8154815290600101906020018083116104bb57829003601f168201915b505050505081565b6104e861095b565b610527576040805162461bcd60e51b81526020600482018190526024820152600080516020610d76833981519152604482015290519081900360640190fd5b6002805460ff19166001179055565b606080600061054361043f565b90508060405190808252806020026020018201604052801561056f578160200160208202803883390190505b5092508060405190808252806020026020018201604052801561059c578160200160208202803883390190505b50915060005b8181101561061757336000908152600a602052604081208054839081106105c557fe5b9060005260206000209060020201905080600001548583815181106105e657fe5b602002602001018181525050806001015484838151811061060357fe5b6020908102919091010152506001016105a2565b50509091565b61062561095b565b610664576040805162461bcd60e51b81526020600482018190526024820152600080516020610d76833981519152604482015290519081900360640190fd5b600480546001600160a01b0319166001600160a01b0392909216919091179055565b60095481565b6004546001600160a01b031681565b6106a361095b565b6106e2576040805162461bcd60e51b81526020600482018190526024820152600080516020610d76833981519152604482015290519081900360640190fd5b600180548101808255600254909160ff909116151514156107345760405162461bcd60e51b8152600401808060200182810382526044815260200180610d326044913960600191505060405180910390fd5b60045460405147916001600160a01b03169082156108fc029083906000818181858888f1935050505015801561076e573d6000803e3d6000fd5b506040805182815290517f5b6b431d4476a211bb7d41c20d1aab9ae2321deee0d20be3d9fc9b1093fa6e3d9181900360200190a15060015481146107f9576040805162461bcd60e51b815260206004820152601f60248201527f5265656e7472616e637947756172643a207265656e7472616e742063616c6c00604482015290519081900360640190fd5b50565b6006805460408051602060026001851615610100026000190190941693909304601f810184900484028201840190925281815292918301828280156104d85780601f106104ad576101008083540402835291602001916104d8565b61085f61095b565b61089e576040805162461bcd60e51b81526020600482018190526024820152600080516020610d76833981519152604482015290519081900360640190fd5b600080546040516001600160a01b03909116907f8be0079c531659141344cd1fd0a4f28419497f9722a3daafe3b4186f6b6457e0908390a3600080546001600160a01b0319169055565b6007805460408051602060026001851615610100026000190190941693909304601f810184900484028201840190925281815292918301828280156104d85780601f106104ad576101008083540402835291602001916104d8565b60025460ff1681565b6000546001600160a01b031690565b600080546001600160a01b0316610970610bec565b6001600160a01b031614905090565b6005805460408051602060026001851615610100026000190190941693909304601f810184900484028201840190925281815292918301828280156104d85780601f106104ad576101008083540402835291602001916104d8565b6109e261095b565b610a21576040805162461bcd60e51b81526020600482018190526024820152600080516020610d76833981519152604482015290519081900360640190fd5b6002805460ff19169055565b60085481565b600180548101808255600254909160ff90911615151415610a855760405162461bcd60e51b8152600401808060200182810382526044815260200180610d326044913960600191505060405180910390fd5b813410158015610a955750600082115b610a9e57600080fd5b610aa6610cf1565b50604080518082018252838152426020808301918252336000908152600a82529384208054600181810183559186529190942083516002909202019081559051920191909155600854610aff908463ffffffff610bf016565b60085560098054600101905560408051848152905133917f264f630d9efa0d07053a31163641d9fcc0adafc9d9e76f1c37c2ce3a558d2c52919081900360200190a2506001548114610b98576040805162461bcd60e51b815260206004820152601f60248201527f5265656e7472616e637947756172643a207265656e7472616e742063616c6c00604482015290519081900360640190fd5b5050565b610ba461095b565b610be3576040805162461bcd60e51b81526020600482018190526024820152600080516020610d76833981519152604482015290519081900360640190fd5b6107f981610c51565b3390565b600082820183811015610c4a576040805162461bcd60e51b815260206004820152601b60248201527f536166654d6174683a206164646974696f6e206f766572666c6f770000000000604482015290519081900360640190fd5b9392505050565b6001600160a01b038116610c965760405162461bcd60e51b8152600401808060200182810382526026815260200180610d0c6026913960400191505060405180910390fd5b600080546040516001600160a01b03808516939216917f8be0079c531659141344cd1fd0a4f28419497f9722a3daafe3b4186f6b6457e091a3600080546001600160a01b0319166001600160a01b0392909216919091179055565b60405180604001604052806000815260200160008152509056fe4f776e61626c653a206e6577206f776e657220697320746865207a65726f206164647265737343757272656e746c7920796f752063616e6e6f7420706572666f726d207468697320616374696f6e206265636175736520636f6e74726163742069732073746f707065644f776e61626c653a2063616c6c6572206973206e6f7420746865206f776e6572a265627a7a7231582035d93b7add80208fced818f2b62ab9c0bc3314058953b6b8e9cf4b014e9e443064736f6c634300051000324f776e61626c653a206e6577206f776e657220697320746865207a65726f20616464726573738be0079c531659141344cd1fd0a4f28419497f9722a3daafe3b4186f6b6457e0a265627a7a72315820ca2a8a14e212c11320d6b464cd10f1fd3a626281a19950267a4b4a3b169b8a0764736f6c63430005100032",
  "source": "pragma solidity 0.5.16;\n\nimport \"./Fundraiser.sol\";\n\ncontract FundraiserFactory{\n\n    uint constant MAXLIMIT = 20;\n\n    Fundraiser[] private _fundraisers;\n\n    event FundraiserCreated(address indexed fundraiser);\n\n    function createFundraiser (\n            address payable _beneficiary,\n            string memory _name,\n            string memory _imageUrl,\n            string memory _url,\n            string memory _description\n    )\n    public\n    {\n        Fundraiser fundraiser = new Fundraiser(\n            msg.sender, \n            _beneficiary,\n            _name,\n            _imageUrl,\n            _url, \n            _description\n        );\n\n        _fundraisers.push(fundraiser);\n        emit FundraiserCreated(address(fundraiser));\n    }\n\n    function fundraisers(uint limit, uint offset) \n        public \n        view \n        returns(Fundraiser[] memory coll)\n        {\n            require(offset <= fundraisersCount(), \"offset out of bounds\");\n\n            uint256 size = fundraisersCount() - offset;\n\n            size = size < limit ? size : limit;\n            size = size < MAXLIMIT ? size : MAXLIMIT;\n            coll = new Fundraiser[](size);\n\n            for(uint i = 0; i < size; i++){\n                coll[i] = _fundraisers[offset +i];\n            }\n        }\n\n    function fundraisersCount() public view returns(uint){\n        return _fundraisers.length;\n    }\n\n}",
  "sourcePath": "/home/richix/Desktop/CONSENSYS-SCHOLAR/final-course-projects/fundraiser-dapp/contracts/FundraiserFactory.sol",
  "compiler": {
    "name": "solc",
    "version": "0.5.16+commit.9c3226ce.Emscripten.clang"
  },
  "schemaVersion": "3.0.19",
  "updatedAt": "2020-02-02T23:27:39.433Z",
  "networkType": "ethereum",
  "devdoc": {
    "methods": {}
  },
  "userdoc": {
    "methods": {}
  }
}