{
  "contractName": "FundraiserFactory",
  "abi": [
    {
      "anonymous": false,
      "inputs": [
        {
          "indexed": true,
          "internalType": "address",
          "name": "fundraiser",
          "type": "address"
        }
      ],
      "name": "FundraiserCreated",
      "type": "event"
    },
    {
      "inputs": [
        {
          "internalType": "address payable",
          "name": "_beneficiary",
          "type": "address"
        },
        {
          "internalType": "string",
          "name": "_name",
          "type": "string"
        },
        {
          "internalType": "string",
          "name": "_imageUrl",
          "type": "string"
        },
        {
          "internalType": "string",
          "name": "_url",
          "type": "string"
        },
        {
          "internalType": "string",
          "name": "_description",
          "type": "string"
        }
      ],
      "name": "createFundraiser",
      "outputs": [],
      "stateMutability": "nonpayable",
      "type": "function"
    },
    {
      "inputs": [
        {
          "internalType": "uint256",
          "name": "limit",
          "type": "uint256"
        },
        {
          "internalType": "uint256",
          "name": "offset",
          "type": "uint256"
        }
      ],
      "name": "fundraisers",
      "outputs": [
        {
          "internalType": "contract Fundraiser[]",
          "name": "coll",
          "type": "address[]"
        }
      ],
      "stateMutability": "view",
      "type": "function",
      "constant": true
    },
    {
      "inputs": [],
      "name": "fundraisersCount",
      "outputs": [
        {
          "internalType": "uint256",
          "name": "",
          "type": "uint256"
        }
      ],
      "stateMutability": "view",
      "type": "function",
      "constant": true
    }
  ],
  "bytecode": "0x608060405234801561001057600080fd5b50611b61806100206000396000f3fe60806040523480156200001157600080fd5b5060043610620000465760003560e01c806322c8579a146200004b578063704914f8146200029f5780639d3b43551462000317575b600080fd5b6200029d600480360360a08110156200006357600080fd5b6001600160a01b038235169190810190604081016020820135600160201b8111156200008e57600080fd5b820183602082011115620000a157600080fd5b803590602001918460018302840111600160201b83111715620000c357600080fd5b91908080601f0160208091040260200160405190810160405280939291908181526020018383808284376000920191909152509295949360208101935035915050600160201b8111156200011657600080fd5b8201836020820111156200012957600080fd5b803590602001918460018302840111600160201b831117156200014b57600080fd5b91908080601f0160208091040260200160405190810160405280939291908181526020018383808284376000920191909152509295949360208101935035915050600160201b8111156200019e57600080fd5b820183602082011115620001b157600080fd5b803590602001918460018302840111600160201b83111715620001d357600080fd5b91908080601f0160208091040260200160405190810160405280939291908181526020018383808284376000920191909152509295949360208101935035915050600160201b8111156200022657600080fd5b8201836020820111156200023957600080fd5b803590602001918460018302840111600160201b831117156200025b57600080fd5b91908080601f01602080910402602001604051908101604052809392919081815260200183838082843760009201919091525092955062000333945050505050565b005b620002c560048036036040811015620002b757600080fd5b5080359060200135620005c1565b60408051602080825283518183015283519192839290830191858101910280838360005b8381101562000303578181015183820152602001620002e9565b505050509050019250505060405180910390f35b6200032162000707565b60408051918252519081900360200190f35b600033868686868660405162000349906200070d565b80876001600160a01b03166001600160a01b03168152602001866001600160a01b03166001600160a01b0316815260200180602001806020018060200180602001858103855289818151815260200191508051906020019080838360005b83811015620003c1578181015183820152602001620003a7565b50505050905090810190601f168015620003ef5780820380516001836020036101000a031916815260200191505b5085810384528851815288516020918201918a019080838360005b83811015620004245781810151838201526020016200040a565b50505050905090810190601f168015620004525780820380516001836020036101000a031916815260200191505b50858103835287518152875160209182019189019080838360005b83811015620004875781810151838201526020016200046d565b50505050905090810190601f168015620004b55780820380516001836020036101000a031916815260200191505b50858103825286518152865160209182019188019080838360005b83811015620004ea578181015183820152602001620004d0565b50505050905090810190601f168015620005185780820380516001836020036101000a031916815260200191505b509a5050505050505050505050604051809103906000f08015801562000542573d6000803e3d6000fd5b50600080546001810182558180527f290decd9548b62a8d60345a988386fc84ba6bc95484008f6362f93160ef3e5630180546001600160a01b0319166001600160a01b038416908117909155604051929350917f2557643b2d3fb1068494cb23ac8d1b3b2a857564fe606f86020e33e2351e42dc9190a2505050505050565b6060620005cd62000707565b82111562000619576040805162461bcd60e51b81526020600482015260146024820152736f6666736574206f7574206f6620626f756e647360601b604482015290519081900360640190fd5b6000826200062662000707565b0390508381106200063857836200063a565b805b9050601481106200064d5760146200064f565b805b90508067ffffffffffffffff811180156200066957600080fd5b5060405190808252806020026020018201604052801562000694578160200160208202803683370190505b50915060005b81811015620006ff57600081850181548110620006b357fe5b9060005260206000200160009054906101000a90046001600160a01b0316838281518110620006de57fe5b6001600160a01b03909216602092830291909101909101526001016200069a565b505092915050565b60005490565b611410806200071c8339019056fe60806040523480156200001157600080fd5b506040516200141038038062001410833981810160405260c08110156200003757600080fd5b815160208301516040808501805191519395929483019291846401000000008211156200006357600080fd5b9083019060208201858111156200007957600080fd5b82516401000000008111828201881017156200009457600080fd5b82525081516020918201929091019080838360005b83811015620000c3578181015183820152602001620000a9565b50505050905090810190601f168015620000f15780820380516001836020036101000a031916815260200191505b50604052602001805160405193929190846401000000008211156200011557600080fd5b9083019060208201858111156200012b57600080fd5b82516401000000008111828201881017156200014657600080fd5b82525081516020918201929091019080838360005b83811015620001755781810151838201526020016200015b565b50505050905090810190601f168015620001a35780820380516001836020036101000a031916815260200191505b5060405260200180516040519392919084640100000000821115620001c757600080fd5b908301906020820185811115620001dd57600080fd5b8251640100000000811182820188101715620001f857600080fd5b82525081516020918201929091019080838360005b83811015620002275781810151838201526020016200020d565b50505050905090810190601f168015620002555780820380516001836020036101000a031916815260200191505b50604052602001805160405193929190846401000000008211156200027957600080fd5b9083019060208201858111156200028f57600080fd5b8251640100000000811182820188101715620002aa57600080fd5b82525081516020918201929091019080838360005b83811015620002d9578181015183820152602001620002bf565b50505050905090810190601f168015620003075780820380516001836020036101000a031916815260200191505b50604052505050600062000320620003f060201b60201c565b600080546001600160a01b0319166001600160a01b038316908117825560405192935091600080516020620013f0833981519152908290a3506001805562000371866001600160e01b03620003f516565b600480546001600160a01b0319166001600160a01b0387161790558351620003a1906003906020870190620004fc565b508251620003b7906005906020860190620004fc565b508151620003cd906006906020850190620004fc565b508051620003e3906007906020840190620004fc565b505050505050506200059e565b335b90565b620004086001600160e01b03620003f016565b6000546001600160a01b039081169116146200046b576040805162461bcd60e51b815260206004820181905260248201527f4f776e61626c653a2063616c6c6572206973206e6f7420746865206f776e6572604482015290519081900360640190fd5b6001600160a01b038116620004b25760405162461bcd60e51b8152600401808060200182810382526026815260200180620013ca6026913960400191505060405180910390fd5b600080546040516001600160a01b0380851693921691600080516020620013f083398151915291a3600080546001600160a01b0319166001600160a01b0392909216919091179055565b828054600181600116156101000203166002900490600052602060002090601f016020900481019282601f106200053f57805160ff19168380011785556200056f565b828001600101855582156200056f579182015b828111156200056f57825182559160200191906001019062000552565b506200057d92915062000581565b5090565b620003f291905b808211156200057d576000815560010162000588565b610e1c80620005ae6000396000f3fe60806040526004361061010d5760003560e01c8063715018a611610095578063aba8315011610064578063aba831501461039e578063c4bc5da5146103b3578063de2ed893146103c8578063f14faf6f146103dd578063f2fde38b146103fa57610125565b8063715018a6146103365780637284e4161461034b57806375f12b21146103605780638da5cb5b1461038957610125565b80631c31f710116100dc5780631c31f710146102a05780631f522595146102d357806338af3eed146102e85780633ccfd60b146103195780635600f04f1461032157610125565b80630180b97c1461012a57806306fdde031461015157806312253a6c146101db5780631a57f7b4146101f257610125565b36610125576008805434019055600980546001019055005b600080fd5b34801561013657600080fd5b5061013f61042d565b60408051918252519081900360200190f35b34801561015d57600080fd5b50610166610440565b6040805160208082528351818301528351919283929083019185019080838360005b838110156101a0578181015183820152602001610188565b50505050905090810190601f1680156101cd5780820380516001836020036101000a031916815260200191505b509250505060405180910390f35b3480156101e757600080fd5b506101f06104ce565b005b3480156101fe57600080fd5b50610207610535565b604051808060200180602001838103835285818151815260200191508051906020019060200280838360005b8381101561024b578181015183820152602001610233565b50505050905001838103825284818151815260200191508051906020019060200280838360005b8381101561028a578181015183820152602001610272565b5050505090500194505050505060405180910390f35b3480156102ac57600080fd5b506101f0600480360360208110156102c357600080fd5b50356001600160a01b031661064a565b3480156102df57600080fd5b5061013f6106c4565b3480156102f457600080fd5b506102fd6106ca565b604080516001600160a01b039092168252519081900360200190f35b6101f06106d9565b34801561032d57600080fd5b50610166610849565b34801561034257600080fd5b506101f06108a4565b34801561035757600080fd5b50610166610946565b34801561036c57600080fd5b506103756109a1565b604080519115158252519081900360200190f35b34801561039557600080fd5b506102fd6109aa565b3480156103aa57600080fd5b506101666109b9565b3480156103bf57600080fd5b506101f0610a14565b3480156103d457600080fd5b5061013f610a78565b6101f0600480360360208110156103f357600080fd5b5035610a7e565b34801561040657600080fd5b506101f06004803603602081101561041d57600080fd5b50356001600160a01b0316610be5565b336000908152600a602052604090205490565b6003805460408051602060026001851615610100026000190190941693909304601f810184900484028201840190925281815292918301828280156104c65780601f1061049b576101008083540402835291602001916104c6565b820191906000526020600020905b8154815290600101906020018083116104a957829003601f168201915b505050505081565b6104d6610cdd565b6000546001600160a01b03908116911614610526576040805162461bcd60e51b81526020600482018190526024820152600080516020610dc7833981519152604482015290519081900360640190fd5b6002805460ff19166001179055565b606080600061054261042d565b90508067ffffffffffffffff8111801561055b57600080fd5b50604051908082528060200260200182016040528015610585578160200160208202803683370190505b5092508067ffffffffffffffff8111801561059f57600080fd5b506040519080825280602002602001820160405280156105c9578160200160208202803683370190505b50915060005b8181101561064457336000908152600a602052604081208054839081106105f257fe5b90600052602060002090600202019050806000015485838151811061061357fe5b602002602001018181525050806001015484838151811061063057fe5b6020908102919091010152506001016105cf565b50509091565b610652610cdd565b6000546001600160a01b039081169116146106a2576040805162461bcd60e51b81526020600482018190526024820152600080516020610dc7833981519152604482015290519081900360640190fd5b600480546001600160a01b0319166001600160a01b0392909216919091179055565b60095481565b6004546001600160a01b031681565b6106e1610cdd565b6000546001600160a01b03908116911614610731576040805162461bcd60e51b81526020600482018190526024820152600080516020610dc7833981519152604482015290519081900360640190fd5b60026001541415610789576040805162461bcd60e51b815260206004820152601f60248201527f5265656e7472616e637947756172643a207265656e7472616e742063616c6c00604482015290519081900360640190fd5b60026001818155905460ff16151514156107d45760405162461bcd60e51b8152600401808060200182810382526044815260200180610d836044913960600191505060405180910390fd5b60045460405147916001600160a01b03169082156108fc029083906000818181858888f1935050505015801561080e573d6000803e3d6000fd5b506040805182815290517f5b6b431d4476a211bb7d41c20d1aab9ae2321deee0d20be3d9fc9b1093fa6e3d9181900360200190a15060018055565b6006805460408051602060026001851615610100026000190190941693909304601f810184900484028201840190925281815292918301828280156104c65780601f1061049b576101008083540402835291602001916104c6565b6108ac610cdd565b6000546001600160a01b039081169116146108fc576040805162461bcd60e51b81526020600482018190526024820152600080516020610dc7833981519152604482015290519081900360640190fd5b600080546040516001600160a01b03909116907f8be0079c531659141344cd1fd0a4f28419497f9722a3daafe3b4186f6b6457e0908390a3600080546001600160a01b0319169055565b6007805460408051602060026001851615610100026000190190941693909304601f810184900484028201840190925281815292918301828280156104c65780601f1061049b576101008083540402835291602001916104c6565b60025460ff1681565b6000546001600160a01b031690565b6005805460408051602060026001851615610100026000190190941693909304601f810184900484028201840190925281815292918301828280156104c65780601f1061049b576101008083540402835291602001916104c6565b610a1c610cdd565b6000546001600160a01b03908116911614610a6c576040805162461bcd60e51b81526020600482018190526024820152600080516020610dc7833981519152604482015290519081900360640190fd5b6002805460ff19169055565b60085481565b60026001541415610ad6576040805162461bcd60e51b815260206004820152601f60248201527f5265656e7472616e637947756172643a207265656e7472616e742063616c6c00604482015290519081900360640190fd5b60026001818155905460ff1615151415610b215760405162461bcd60e51b8152600401808060200182810382526044815260200180610d836044913960600191505060405180910390fd5b803410158015610b315750600081115b610b3a57600080fd5b610b42610d42565b50604080518082018252828152426020808301918252336000908152600a82529384208054600181810183559186529190942083516002909202019081559051920191909155600854610b9b908363ffffffff610ce116565b60085560098054600101905560408051838152905133917f264f630d9efa0d07053a31163641d9fcc0adafc9d9e76f1c37c2ce3a558d2c52919081900360200190a2505060018055565b610bed610cdd565b6000546001600160a01b03908116911614610c3d576040805162461bcd60e51b81526020600482018190526024820152600080516020610dc7833981519152604482015290519081900360640190fd5b6001600160a01b038116610c825760405162461bcd60e51b8152600401808060200182810382526026815260200180610d5d6026913960400191505060405180910390fd5b600080546040516001600160a01b03808516939216917f8be0079c531659141344cd1fd0a4f28419497f9722a3daafe3b4186f6b6457e091a3600080546001600160a01b0319166001600160a01b0392909216919091179055565b3390565b600082820183811015610d3b576040805162461bcd60e51b815260206004820152601b60248201527f536166654d6174683a206164646974696f6e206f766572666c6f770000000000604482015290519081900360640190fd5b9392505050565b60405180604001604052806000815260200160008152509056fe4f776e61626c653a206e6577206f776e657220697320746865207a65726f206164647265737343757272656e746c7920796f752063616e6e6f7420706572666f726d207468697320616374696f6e206265636175736520636f6e74726163742069732073746f707065644f776e61626c653a2063616c6c6572206973206e6f7420746865206f776e6572a26469706673582212203cab19df8b70a169195c162bb7afa8ea7fda75c1673488fb2e0b7475778838a364736f6c634300060500334f776e61626c653a206e6577206f776e657220697320746865207a65726f20616464726573738be0079c531659141344cd1fd0a4f28419497f9722a3daafe3b4186f6b6457e0a26469706673582212202a7ea4e72d023687e1b4e6c49b3fa9ad826edc0269f0ba4374a7e3c3d167029364736f6c63430006050033",
  "immutableReferences": {},
  "source": "pragma solidity 0.6.5;\n\nimport \"./Fundraiser.sol\";\n\ncontract FundraiserFactory{\n\n    uint constant MAXLIMIT = 20;\n\n    Fundraiser[] private _fundraisers;\n\n    event FundraiserCreated(address indexed fundraiser);\n\n    function createFundraiser (\n            address payable _beneficiary,\n            string memory _name,\n            string memory _imageUrl,\n            string memory _url,\n            string memory _description\n    )\n    public\n    {\n        Fundraiser fundraiser = new Fundraiser(\n            msg.sender, \n            _beneficiary,\n            _name,\n            _imageUrl,\n            _url, \n            _description\n        );\n\n        _fundraisers.push(fundraiser);\n        emit FundraiserCreated(address(fundraiser));\n    }\n\n    function fundraisers(uint limit, uint offset) \n        public \n        view \n        returns(Fundraiser[] memory coll)\n        {\n            require(offset <= fundraisersCount(), \"offset out of bounds\");\n\n            uint256 size = fundraisersCount() - offset;\n\n            size = size < limit ? size : limit;\n            size = size < MAXLIMIT ? size : MAXLIMIT;\n            coll = new Fundraiser[](size);\n\n            for(uint i = 0; i < size; i++){\n                coll[i] = _fundraisers[offset +i];\n            }\n        }\n\n    function fundraisersCount() public view returns(uint){\n        return _fundraisers.length;\n    }\n\n}",
  "sourcePath": "/home/anthler/Desktop/SMART CONTRACTS/crypto-raiser/contracts/FundraiserFactory.sol",
  "compiler": {
    "name": "solc",
    "version": "0.6.5+commit.f956cc89.Emscripten.clang"
  },
  "schemaVersion": "3.2.0",
  "updatedAt": "2020-08-11T01:29:44.074Z",
  "networkType": "ethereum",
  "devdoc": {
    "methods": {}
  },
  "userdoc": {
    "methods": {}
  }
}