{
  "contractName": "Fundraiser",
  "abi": [
    {
      "inputs": [
        {
          "internalType": "address",
          "name": "_custodian",
          "type": "address"
        },
        {
          "internalType": "address payable",
          "name": "_beneficiary",
          "type": "address"
        },
        {
          "internalType": "string",
          "name": "_name",
          "type": "string"
        },
        {
          "internalType": "string",
          "name": "_imageUrl",
          "type": "string"
        },
        {
          "internalType": "string",
          "name": "_url",
          "type": "string"
        },
        {
          "internalType": "string",
          "name": "_desc",
          "type": "string"
        }
      ],
      "payable": false,
      "stateMutability": "nonpayable",
      "type": "constructor"
    },
    {
      "anonymous": false,
      "inputs": [
        {
          "indexed": true,
          "internalType": "address",
          "name": "donor",
          "type": "address"
        },
        {
          "indexed": false,
          "internalType": "uint256",
          "name": "value",
          "type": "uint256"
        }
      ],
      "name": "DonationReceived",
      "type": "event"
    },
    {
      "anonymous": false,
      "inputs": [
        {
          "indexed": true,
          "internalType": "address",
          "name": "previousOwner",
          "type": "address"
        },
        {
          "indexed": true,
          "internalType": "address",
          "name": "newOwner",
          "type": "address"
        }
      ],
      "name": "OwnershipTransferred",
      "type": "event"
    },
    {
      "anonymous": false,
      "inputs": [
        {
          "indexed": false,
          "internalType": "uint256",
          "name": "amount",
          "type": "uint256"
        }
      ],
      "name": "Withdraw",
      "type": "event"
    },
    {
      "payable": true,
      "stateMutability": "payable",
      "type": "fallback"
    },
    {
      "constant": true,
      "inputs": [],
      "name": "beneficiary",
      "outputs": [
        {
          "internalType": "address payable",
          "name": "",
          "type": "address"
        }
      ],
      "payable": false,
      "stateMutability": "view",
      "type": "function"
    },
    {
      "constant": true,
      "inputs": [],
      "name": "description",
      "outputs": [
        {
          "internalType": "string",
          "name": "",
          "type": "string"
        }
      ],
      "payable": false,
      "stateMutability": "view",
      "type": "function"
    },
    {
      "constant": true,
      "inputs": [],
      "name": "donationsCount",
      "outputs": [
        {
          "internalType": "uint256",
          "name": "",
          "type": "uint256"
        }
      ],
      "payable": false,
      "stateMutability": "view",
      "type": "function"
    },
    {
      "constant": true,
      "inputs": [],
      "name": "imageUrl",
      "outputs": [
        {
          "internalType": "string",
          "name": "",
          "type": "string"
        }
      ],
      "payable": false,
      "stateMutability": "view",
      "type": "function"
    },
    {
      "constant": true,
      "inputs": [],
      "name": "isOwner",
      "outputs": [
        {
          "internalType": "bool",
          "name": "",
          "type": "bool"
        }
      ],
      "payable": false,
      "stateMutability": "view",
      "type": "function"
    },
    {
      "constant": true,
      "inputs": [],
      "name": "name",
      "outputs": [
        {
          "internalType": "string",
          "name": "",
          "type": "string"
        }
      ],
      "payable": false,
      "stateMutability": "view",
      "type": "function"
    },
    {
      "constant": true,
      "inputs": [],
      "name": "owner",
      "outputs": [
        {
          "internalType": "address",
          "name": "",
          "type": "address"
        }
      ],
      "payable": false,
      "stateMutability": "view",
      "type": "function"
    },
    {
      "constant": false,
      "inputs": [],
      "name": "renounceOwnership",
      "outputs": [],
      "payable": false,
      "stateMutability": "nonpayable",
      "type": "function"
    },
    {
      "constant": true,
      "inputs": [],
      "name": "stopped",
      "outputs": [
        {
          "internalType": "bool",
          "name": "",
          "type": "bool"
        }
      ],
      "payable": false,
      "stateMutability": "view",
      "type": "function"
    },
    {
      "constant": true,
      "inputs": [],
      "name": "totalDonations",
      "outputs": [
        {
          "internalType": "uint256",
          "name": "",
          "type": "uint256"
        }
      ],
      "payable": false,
      "stateMutability": "view",
      "type": "function"
    },
    {
      "constant": false,
      "inputs": [
        {
          "internalType": "address",
          "name": "newOwner",
          "type": "address"
        }
      ],
      "name": "transferOwnership",
      "outputs": [],
      "payable": false,
      "stateMutability": "nonpayable",
      "type": "function"
    },
    {
      "constant": true,
      "inputs": [],
      "name": "url",
      "outputs": [
        {
          "internalType": "string",
          "name": "",
          "type": "string"
        }
      ],
      "payable": false,
      "stateMutability": "view",
      "type": "function"
    },
    {
      "constant": false,
      "inputs": [],
      "name": "stopContract",
      "outputs": [],
      "payable": false,
      "stateMutability": "nonpayable",
      "type": "function"
    },
    {
      "constant": false,
      "inputs": [],
      "name": "resumeContract",
      "outputs": [],
      "payable": false,
      "stateMutability": "nonpayable",
      "type": "function"
    },
    {
      "constant": false,
      "inputs": [
        {
          "internalType": "uint256",
          "name": "_value",
          "type": "uint256"
        }
      ],
      "name": "donate",
      "outputs": [],
      "payable": true,
      "stateMutability": "payable",
      "type": "function"
    },
    {
      "constant": false,
      "inputs": [
        {
          "internalType": "address payable",
          "name": "_beneficiary",
          "type": "address"
        }
      ],
      "name": "setBeneficiary",
      "outputs": [],
      "payable": false,
      "stateMutability": "nonpayable",
      "type": "function"
    },
    {
      "constant": false,
      "inputs": [],
      "name": "withdraw",
      "outputs": [],
      "payable": true,
      "stateMutability": "payable",
      "type": "function"
    },
    {
      "constant": true,
      "inputs": [],
      "name": "myDonationsCount",
      "outputs": [
        {
          "internalType": "uint256",
          "name": "",
          "type": "uint256"
        }
      ],
      "payable": false,
      "stateMutability": "view",
      "type": "function"
    },
    {
      "constant": true,
      "inputs": [],
      "name": "myDonations",
      "outputs": [
        {
          "internalType": "uint256[]",
          "name": "values",
          "type": "uint256[]"
        },
        {
          "internalType": "uint256[]",
          "name": "dates",
          "type": "uint256[]"
        }
      ],
      "payable": false,
      "stateMutability": "view",
      "type": "function"
    }
  ],
  "bytecode": "0x60806040523480156200001157600080fd5b506040516200134838038062001348833981810160405260c08110156200003757600080fd5b815160208301516040808501805191519395929483019291846401000000008211156200006357600080fd5b9083019060208201858111156200007957600080fd5b82516401000000008111828201881017156200009457600080fd5b82525081516020918201929091019080838360005b83811015620000c3578181015183820152602001620000a9565b50505050905090810190601f168015620000f15780820380516001836020036101000a031916815260200191505b50604052602001805160405193929190846401000000008211156200011557600080fd5b9083019060208201858111156200012b57600080fd5b82516401000000008111828201881017156200014657600080fd5b82525081516020918201929091019080838360005b83811015620001755781810151838201526020016200015b565b50505050905090810190601f168015620001a35780820380516001836020036101000a031916815260200191505b5060405260200180516040519392919084640100000000821115620001c757600080fd5b908301906020820185811115620001dd57600080fd5b8251640100000000811182820188101715620001f857600080fd5b82525081516020918201929091019080838360005b83811015620002275781810151838201526020016200020d565b50505050905090810190601f168015620002555780820380516001836020036101000a031916815260200191505b50604052602001805160405193929190846401000000008211156200027957600080fd5b9083019060208201858111156200028f57600080fd5b8251640100000000811182820188101715620002aa57600080fd5b82525081516020918201929091019080838360005b83811015620002d9578181015183820152602001620002bf565b50505050905090810190601f168015620003075780820380516001836020036101000a031916815260200191505b5060405250620003229150506001600160e01b03620003f016565b600080546001600160a01b0319166001600160a01b039283161780825560405192169160008051602062001328833981519152908290a36001805562000371866001600160e01b03620003f516565b600480546001600160a01b0319166001600160a01b0387161790558351620003a190600390602087019062000486565b508251620003b790600590602086019062000486565b508151620003cd90600690602085019062000486565b508051620003e390600790602084019062000486565b5050505050505062000528565b335b90565b6001600160a01b0381166200043c5760405162461bcd60e51b8152600401808060200182810382526026815260200180620013026026913960400191505060405180910390fd5b600080546040516001600160a01b03808516939216916000805160206200132883398151915291a3600080546001600160a01b0319166001600160a01b0392909216919091179055565b828054600181600116156101000203166002900490600052602060002090601f016020900481019282601f10620004c957805160ff1916838001178555620004f9565b82800160010185558215620004f9579182015b82811115620004f9578251825591602001919060010190620004dc565b50620005079291506200050b565b5090565b620003f291905b8082111562000507576000815560010162000512565b610dca80620005386000396000f3fe6080604052600436106101145760003560e01c8063715018a6116100a0578063aba8315011610064578063aba83150146103b0578063c4bc5da5146103c5578063de2ed893146103da578063f14faf6f146103ef578063f2fde38b1461040c57610114565b8063715018a6146103335780637284e4161461034857806375f12b211461035d5780638da5cb5b146103865780638f32d59b1461039b57610114565b80631c31f710116100e75780631c31f7101461029d5780631f522595146102d057806338af3eed146102e55780633ccfd60b146103165780635600f04f1461031e57610114565b80630180b97c1461012757806306fdde031461014e57806312253a6c146101d85780631a57f7b4146101ef575b6009805434019055600a80546001019055005b34801561013357600080fd5b5061013c61043f565b60408051918252519081900360200190f35b34801561015a57600080fd5b50610163610452565b6040805160208082528351818301528351919283929083019185019080838360005b8381101561019d578181015183820152602001610185565b50505050905090810190601f1680156101ca5780820380516001836020036101000a031916815260200191505b509250505060405180910390f35b3480156101e457600080fd5b506101ed6104e0565b005b3480156101fb57600080fd5b50610204610536565b604051808060200180602001838103835285818151815260200191508051906020019060200280838360005b83811015610248578181015183820152602001610230565b50505050905001838103825284818151815260200191508051906020019060200280838360005b8381101561028757818101518382015260200161026f565b5050505090500194505050505060405180910390f35b3480156102a957600080fd5b506101ed600480360360208110156102c057600080fd5b50356001600160a01b031661061d565b3480156102dc57600080fd5b5061013c610686565b3480156102f157600080fd5b506102fa61068c565b604080516001600160a01b039092168252519081900360200190f35b6101ed61069b565b34801561032a57600080fd5b506101636107fc565b34801561033f57600080fd5b506101ed610857565b34801561035457600080fd5b506101636108e8565b34801561036957600080fd5b50610372610943565b604080519115158252519081900360200190f35b34801561039257600080fd5b506102fa61094c565b3480156103a757600080fd5b5061037261095b565b3480156103bc57600080fd5b5061016361097f565b3480156103d157600080fd5b506101ed6109da565b3480156103e657600080fd5b5061013c610a2d565b6101ed6004803603602081101561040557600080fd5b5035610a33565b34801561041857600080fd5b506101ed6004803603602081101561042f57600080fd5b50356001600160a01b0316610b9c565b3360009081526008602052604090205490565b6003805460408051602060026001851615610100026000190190941693909304601f810184900484028201840190925281815292918301828280156104d85780601f106104ad576101008083540402835291602001916104d8565b820191906000526020600020905b8154815290600101906020018083116104bb57829003601f168201915b505050505081565b6104e861095b565b610527576040805162461bcd60e51b81526020600482018190526024820152600080516020610d76833981519152604482015290519081900360640190fd5b6002805460ff19166001179055565b606080600061054361043f565b90508060405190808252806020026020018201604052801561056f578160200160208202803883390190505b5092508060405190808252806020026020018201604052801561059c578160200160208202803883390190505b50915060005b81811015610617573360009081526008602052604081208054839081106105c557fe5b9060005260206000209060020201905080600001548583815181106105e657fe5b602002602001018181525050806001015484838151811061060357fe5b6020908102919091010152506001016105a2565b50509091565b61062561095b565b610664576040805162461bcd60e51b81526020600482018190526024820152600080516020610d76833981519152604482015290519081900360640190fd5b600480546001600160a01b0319166001600160a01b0392909216919091179055565b600a5481565b6004546001600160a01b031681565b6106a361095b565b6106e2576040805162461bcd60e51b81526020600482018190526024820152600080516020610d76833981519152604482015290519081900360640190fd5b600180548101808255600254909160ff909116151514156107345760405162461bcd60e51b8152600401808060200182810382526044815260200180610d326044913960600191505060405180910390fd5b60045460405147916001600160a01b03169082156108fc029083906000818181858888f1935050505015801561076e573d6000803e3d6000fd5b506040805182815290517f5b6b431d4476a211bb7d41c20d1aab9ae2321deee0d20be3d9fc9b1093fa6e3d9181900360200190a15060015481146107f9576040805162461bcd60e51b815260206004820152601f60248201527f5265656e7472616e637947756172643a207265656e7472616e742063616c6c00604482015290519081900360640190fd5b50565b6006805460408051602060026001851615610100026000190190941693909304601f810184900484028201840190925281815292918301828280156104d85780601f106104ad576101008083540402835291602001916104d8565b61085f61095b565b61089e576040805162461bcd60e51b81526020600482018190526024820152600080516020610d76833981519152604482015290519081900360640190fd5b600080546040516001600160a01b03909116907f8be0079c531659141344cd1fd0a4f28419497f9722a3daafe3b4186f6b6457e0908390a3600080546001600160a01b0319169055565b6007805460408051602060026001851615610100026000190190941693909304601f810184900484028201840190925281815292918301828280156104d85780601f106104ad576101008083540402835291602001916104d8565b60025460ff1681565b6000546001600160a01b031690565b600080546001600160a01b0316610970610bec565b6001600160a01b031614905090565b6005805460408051602060026001851615610100026000190190941693909304601f810184900484028201840190925281815292918301828280156104d85780601f106104ad576101008083540402835291602001916104d8565b6109e261095b565b610a21576040805162461bcd60e51b81526020600482018190526024820152600080516020610d76833981519152604482015290519081900360640190fd5b6002805460ff19169055565b60095481565b600180548101808255600254909160ff90911615151415610a855760405162461bcd60e51b8152600401808060200182810382526044815260200180610d326044913960600191505060405180910390fd5b813410158015610a955750600082115b610a9e57600080fd5b610aa6610cf1565b50604080518082018252838152426020808301918252336000908152600882529384208054600181810183559186529190942083516002909202019081559051920191909155600954610aff908463ffffffff610bf016565b600955600a8054600101905560408051848152905133917f264f630d9efa0d07053a31163641d9fcc0adafc9d9e76f1c37c2ce3a558d2c52919081900360200190a2506001548114610b98576040805162461bcd60e51b815260206004820152601f60248201527f5265656e7472616e637947756172643a207265656e7472616e742063616c6c00604482015290519081900360640190fd5b5050565b610ba461095b565b610be3576040805162461bcd60e51b81526020600482018190526024820152600080516020610d76833981519152604482015290519081900360640190fd5b6107f981610c51565b3390565b600082820183811015610c4a576040805162461bcd60e51b815260206004820152601b60248201527f536166654d6174683a206164646974696f6e206f766572666c6f770000000000604482015290519081900360640190fd5b9392505050565b6001600160a01b038116610c965760405162461bcd60e51b8152600401808060200182810382526026815260200180610d0c6026913960400191505060405180910390fd5b600080546040516001600160a01b03808516939216917f8be0079c531659141344cd1fd0a4f28419497f9722a3daafe3b4186f6b6457e091a3600080546001600160a01b0319166001600160a01b0392909216919091179055565b60405180604001604052806000815260200160008152509056fe4f776e61626c653a206e6577206f776e657220697320746865207a65726f206164647265737343757272656e746c7920796f752063616e6e6f7420706572666f726d207468697320616374696f6e206265636175736520636f6e74726163742069732073746f707065644f776e61626c653a2063616c6c6572206973206e6f7420746865206f776e6572a265627a7a7231582017057f885810441834dbff480f80b5fa35d556294697386e732eb97ac6eec36b64736f6c634300051000324f776e61626c653a206e6577206f776e657220697320746865207a65726f20616464726573738be0079c531659141344cd1fd0a4f28419497f9722a3daafe3b4186f6b6457e0",
  "source": "pragma solidity 0.5.16;\n\nimport \"@openzeppelin/contracts/math/SafeMath.sol\";\nimport \"@openzeppelin/contracts/ownership/Ownable.sol\";\nimport \"@openzeppelin/contracts/utils/ReentrancyGuard.sol\";\nimport \"@openzeppelin/contracts/lifecycle/Pausable.sol\";\ncontract Fundraiser is Ownable, ReentrancyGuard{\n\n    using SafeMath for uint256;\n\n    bool public stopped;\n\n    string public name;\n    address payable public beneficiary;\n    string public imageUrl;\n    string public url;\n    string public description;\n\n    mapping(address => Donation[]) private _donations;\n    uint public totalDonations;\n    uint public donationsCount;\n\n    event DonationReceived(address indexed donor ,uint value);\n    event Withdraw(uint amount);\n\n    struct Donation{\n        uint value;\n        uint date;\n    }\n\n    modifier whenNotStopped(){\n        require(stopped != true, \"Currently you cannot perform this action because contract is stopped\");\n        _;\n    }\n\n    modifier whenStopped(){\n        require(stopped == true, \"Currently you cannot perform this action because contract is not stopped\");\n        _;\n    }\n\n    function stopContract() public onlyOwner(){\n        stopped = true;\n    }\n\n    function resumeContract() public onlyOwner(){\n        stopped = false;\n    }\n\n    constructor(\n        address _custodian,\n        address payable _beneficiary, \n        string memory _name, \n        string memory _imageUrl, \n        string memory _url,\n        string memory _desc\n    ) \n        public \n    {\n        _transferOwnership(_custodian);\n        beneficiary = _beneficiary;\n        name = _name;\n        imageUrl = _imageUrl;\n        url = _url;\n        description = _desc;\n    }\n\n    function () external payable{\n        totalDonations += msg.value;\n        donationsCount++;\n    }\n\n    function donate(uint _value) public payable nonReentrant() whenNotStopped(){\n        require(msg.value >= _value && _value > 0);\n        Donation memory donation = Donation({value: _value, date: now});\n        _donations[msg.sender].push(donation);\n        totalDonations = totalDonations.add(_value);\n        ++donationsCount;\n        emit DonationReceived(msg.sender, _value);\n    } \n\n    function setBeneficiary(address payable _beneficiary) public onlyOwner {\n        beneficiary = _beneficiary;\n    }\n\n    function withdraw() public payable onlyOwner() nonReentrant() whenNotStopped() {\n        uint balance = address(this).balance;\n        beneficiary.transfer(balance);\n        emit Withdraw(balance);\n    }\n\n    function myDonationsCount() public view returns(uint){\n        return _donations[msg.sender].length;\n    }\n\n    function myDonations() public view returns(uint[] memory values, uint[] memory dates){\n        uint count = myDonationsCount();\n        values = new uint[](count);\n        dates = new uint[](count);\n\n        for(uint i = 0; i < count; i++){\n            Donation storage donation = _donations[msg.sender][i];\n            values[i] = donation.value;\n            dates[i] = donation.date;\n        }\n        return(values, dates);\n    }\n\n}",
  "sourcePath": "/home/richix/Desktop/CONSENSYS-SCHOLAR/final-course-projects/fundraiser-dapp/contracts/Fundraiser.sol",
  "compiler": {
    "name": "solc",
    "version": "0.5.16+commit.9c3226ce.Emscripten.clang"
  },
  "schemaVersion": "3.0.19",
  "updatedAt": "2020-01-31T14:10:56.410Z",
  "devdoc": {
    "methods": {
      "isOwner()": {
        "details": "Returns true if the caller is the current owner."
      },
      "owner()": {
        "details": "Returns the address of the current owner."
      },
      "renounceOwnership()": {
        "details": "Leaves the contract without owner. It will not be possible to call `onlyOwner` functions anymore. Can only be called by the current owner.     * NOTE: Renouncing ownership will leave the contract without an owner, thereby removing any functionality that is only available to the owner."
      },
      "transferOwnership(address)": {
        "details": "Transfers ownership of the contract to a new account (`newOwner`). Can only be called by the current owner."
      }
    }
  },
  "userdoc": {
    "methods": {}
  }
}