{
  "contractName": "FundraiserContract",
  "abi": [
    {
      "inputs": [
        {
          "internalType": "address payable",
          "name": "_beneficiary",
          "type": "address"
        },
        {
          "internalType": "address",
          "name": "_custodian",
          "type": "address"
        },
        {
          "internalType": "string",
          "name": "_name",
          "type": "string"
        },
        {
          "internalType": "string",
          "name": "_imageUrl",
          "type": "string"
        },
        {
          "internalType": "string",
          "name": "_url",
          "type": "string"
        },
        {
          "internalType": "string",
          "name": "_desc",
          "type": "string"
        }
      ],
      "payable": false,
      "stateMutability": "nonpayable",
      "type": "constructor"
    },
    {
      "constant": true,
      "inputs": [],
      "name": "beneficiary",
      "outputs": [
        {
          "internalType": "address payable",
          "name": "",
          "type": "address"
        }
      ],
      "payable": false,
      "stateMutability": "view",
      "type": "function"
    },
    {
      "constant": true,
      "inputs": [],
      "name": "custodian",
      "outputs": [
        {
          "internalType": "address",
          "name": "",
          "type": "address"
        }
      ],
      "payable": false,
      "stateMutability": "view",
      "type": "function"
    },
    {
      "constant": true,
      "inputs": [],
      "name": "description",
      "outputs": [
        {
          "internalType": "string",
          "name": "",
          "type": "string"
        }
      ],
      "payable": false,
      "stateMutability": "view",
      "type": "function"
    },
    {
      "constant": true,
      "inputs": [],
      "name": "imageUrl",
      "outputs": [
        {
          "internalType": "string",
          "name": "",
          "type": "string"
        }
      ],
      "payable": false,
      "stateMutability": "view",
      "type": "function"
    },
    {
      "constant": true,
      "inputs": [],
      "name": "name",
      "outputs": [
        {
          "internalType": "string",
          "name": "",
          "type": "string"
        }
      ],
      "payable": false,
      "stateMutability": "view",
      "type": "function"
    },
    {
      "constant": true,
      "inputs": [],
      "name": "url",
      "outputs": [
        {
          "internalType": "string",
          "name": "",
          "type": "string"
        }
      ],
      "payable": false,
      "stateMutability": "view",
      "type": "function"
    },
    {
      "constant": true,
      "inputs": [],
      "name": "getName",
      "outputs": [
        {
          "internalType": "string",
          "name": "_name",
          "type": "string"
        }
      ],
      "payable": false,
      "stateMutability": "view",
      "type": "function"
    }
  ],
  "bytecode": "0x60806040523480156200001157600080fd5b5060405162000c3438038062000c34833981810160405260c08110156200003757600080fd5b810190808051906020019092919080519060200190929190805160405193929190846401000000008211156200006c57600080fd5b838201915060208201858111156200008357600080fd5b8251866001820283011164010000000082111715620000a157600080fd5b8083526020830192505050908051906020019080838360005b83811015620000d7578082015181840152602081019050620000ba565b50505050905090810190601f168015620001055780820380516001836020036101000a031916815260200191505b50604052602001805160405193929190846401000000008211156200012957600080fd5b838201915060208201858111156200014057600080fd5b82518660018202830111640100000000821117156200015e57600080fd5b8083526020830192505050908051906020019080838360005b838110156200019457808201518184015260208101905062000177565b50505050905090810190601f168015620001c25780820380516001836020036101000a031916815260200191505b5060405260200180516040519392919084640100000000821115620001e657600080fd5b83820191506020820185811115620001fd57600080fd5b82518660018202830111640100000000821117156200021b57600080fd5b8083526020830192505050908051906020019080838360005b838110156200025157808201518184015260208101905062000234565b50505050905090810190601f1680156200027f5780820380516001836020036101000a031916815260200191505b5060405260200180516040519392919084640100000000821115620002a357600080fd5b83820191506020820185811115620002ba57600080fd5b8251866001820283011164010000000082111715620002d857600080fd5b8083526020830192505050908051906020019080838360005b838110156200030e578082015181840152602081019050620002f1565b50505050905090810190601f1680156200033c5780820380516001836020036101000a031916815260200191505b5060405250505084600260006101000a81548173ffffffffffffffffffffffffffffffffffffffff021916908373ffffffffffffffffffffffffffffffffffffffff16021790555085600160006101000a81548173ffffffffffffffffffffffffffffffffffffffff021916908373ffffffffffffffffffffffffffffffffffffffff1602179055508360009080519060200190620003dd92919062000435565b508260039080519060200190620003f692919062000435565b5081600490805190602001906200040f92919062000435565b5080600590805190602001906200042892919062000435565b50505050505050620004e4565b828054600181600116156101000203166002900490600052602060002090601f016020900481019282601f106200047857805160ff1916838001178555620004a9565b82800160010185558215620004a9579182015b82811115620004a85782518255916020019190600101906200048b565b5b509050620004b89190620004bc565b5090565b620004e191905b80821115620004dd576000816000905550600101620004c3565b5090565b90565b61074080620004f46000396000f3fe608060405234801561001057600080fd5b506004361061007d5760003560e01c806338af3eed1161005b57806338af3eed146101d25780635600f04f1461021c5780637284e4161461029f578063aba83150146103225761007d565b806306fdde031461008257806317d7de7c14610105578063375b74c314610188575b600080fd5b61008a6103a5565b6040518080602001828103825283818151815260200191508051906020019080838360005b838110156100ca5780820151818401526020810190506100af565b50505050905090810190601f1680156100f75780820380516001836020036101000a031916815260200191505b509250505060405180910390f35b61010d610443565b6040518080602001828103825283818151815260200191508051906020019080838360005b8381101561014d578082015181840152602081019050610132565b50505050905090810190601f16801561017a5780820380516001836020036101000a031916815260200191505b509250505060405180910390f35b6101906104e5565b604051808273ffffffffffffffffffffffffffffffffffffffff1673ffffffffffffffffffffffffffffffffffffffff16815260200191505060405180910390f35b6101da61050b565b604051808273ffffffffffffffffffffffffffffffffffffffff1673ffffffffffffffffffffffffffffffffffffffff16815260200191505060405180910390f35b610224610531565b6040518080602001828103825283818151815260200191508051906020019080838360005b83811015610264578082015181840152602081019050610249565b50505050905090810190601f1680156102915780820380516001836020036101000a031916815260200191505b509250505060405180910390f35b6102a76105cf565b6040518080602001828103825283818151815260200191508051906020019080838360005b838110156102e75780820151818401526020810190506102cc565b50505050905090810190601f1680156103145780820380516001836020036101000a031916815260200191505b509250505060405180910390f35b61032a61066d565b6040518080602001828103825283818151815260200191508051906020019080838360005b8381101561036a57808201518184015260208101905061034f565b50505050905090810190601f1680156103975780820380516001836020036101000a031916815260200191505b509250505060405180910390f35b60008054600181600116156101000203166002900480601f01602080910402602001604051908101604052809291908181526020018280546001816001161561010002031660029004801561043b5780601f106104105761010080835404028352916020019161043b565b820191906000526020600020905b81548152906001019060200180831161041e57829003601f168201915b505050505081565b606060008054600181600116156101000203166002900480601f0160208091040260200160405190810160405280929190818152602001828054600181600116156101000203166002900480156104db5780601f106104b0576101008083540402835291602001916104db565b820191906000526020600020905b8154815290600101906020018083116104be57829003601f168201915b5050505050905090565b600260009054906101000a900473ffffffffffffffffffffffffffffffffffffffff1681565b600160009054906101000a900473ffffffffffffffffffffffffffffffffffffffff1681565b60048054600181600116156101000203166002900480601f0160208091040260200160405190810160405280929190818152602001828054600181600116156101000203166002900480156105c75780601f1061059c576101008083540402835291602001916105c7565b820191906000526020600020905b8154815290600101906020018083116105aa57829003601f168201915b505050505081565b60058054600181600116156101000203166002900480601f0160208091040260200160405190810160405280929190818152602001828054600181600116156101000203166002900480156106655780601f1061063a57610100808354040283529160200191610665565b820191906000526020600020905b81548152906001019060200180831161064857829003601f168201915b505050505081565b60038054600181600116156101000203166002900480601f0160208091040260200160405190810160405280929190818152602001828054600181600116156101000203166002900480156107035780601f106106d857610100808354040283529160200191610703565b820191906000526020600020905b8154815290600101906020018083116106e657829003601f168201915b50505050508156fea265627a7a723158204c414011ea53dd446056d10715011274e80d5c623e9c40033982087c80fa8b7664736f6c634300050c0032",
  "source": "pragma solidity 0.5.12;\n\ncontract FundraiserContract{\n\n    string public name;\n    address payable public beneficiary;\n    address public custodian;\n    string public imageUrl;\n    string public url;\n    string public description;\n\n    constructor(\n        address payable _beneficiary, \n        address _custodian,\n        string memory _name, \n        string memory _imageUrl, \n        string memory _url,\n        string memory _desc\n    ) \n        public \n    {\n        custodian = _custodian;\n        beneficiary = _beneficiary;\n        name = _name;\n        imageUrl = _imageUrl;\n        url = _url;\n        description = _desc;\n    }\n\n    function getName() public view returns(string memory _name){\n        _name = name;\n    }\n\n    // function getBeneficiary() public view returns(address payable){\n    //     return beneficiary;\n    // }\n\n}",
  "sourcePath": "/home/richix/Desktop/CONSENSYS-SCHOLAR/final-course-projects/fundraiser-dapp/contracts/FundraiserContract.sol",
  "compiler": {
    "name": "solc",
    "version": "0.5.12+commit.7709ece9.Emscripten.clang"
  },
  "schemaVersion": "3.0.19",
  "updatedAt": "2019-12-14T10:13:59.937Z",
  "devdoc": {
    "methods": {}
  },
  "userdoc": {
    "methods": {}
  }
}